{
  "_format": "hh-sol-artifact-1",
  "contractName": "Governance",
  "sourceName": "contracts/Governance.sol",
  "abi": [
    {
      "inputs": [
        {
          "internalType": "address[]",
          "name": "initialAgents",
          "type": "address[]"
        }
      ],
      "stateMutability": "nonpayable",
      "type": "constructor"
    },
    {
      "anonymous": false,
      "inputs": [
        {
          "indexed": true,
          "internalType": "uint256",
          "name": "proposalId",
          "type": "uint256"
        },
        {
          "indexed": false,
          "internalType": "string",
          "name": "description",
          "type": "string"
        }
      ],
      "name": "ProposalCreated",
      "type": "event"
    },
    {
      "anonymous": false,
      "inputs": [
        {
          "indexed": true,
          "internalType": "uint256",
          "name": "proposalId",
          "type": "uint256"
        }
      ],
      "name": "ProposalExecuted",
      "type": "event"
    },
    {
      "anonymous": false,
      "inputs": [
        {
          "indexed": true,
          "internalType": "uint256",
          "name": "proposalId",
          "type": "uint256"
        },
        {
          "indexed": true,
          "internalType": "address",
          "name": "voter",
          "type": "address"
        }
      ],
      "name": "Voted",
      "type": "event"
    },
    {
      "inputs": [
        {
          "internalType": "address",
          "name": "",
          "type": "address"
        }
      ],
      "name": "approvedAgents",
      "outputs": [
        {
          "internalType": "bool",
          "name": "",
          "type": "bool"
        }
      ],
      "stateMutability": "view",
      "type": "function"
    },
    {
      "inputs": [
        {
          "internalType": "string",
          "name": "description",
          "type": "string"
        }
      ],
      "name": "createProposal",
      "outputs": [
        {
          "internalType": "uint256",
          "name": "",
          "type": "uint256"
        }
      ],
      "stateMutability": "nonpayable",
      "type": "function"
    },
    {
      "inputs": [
        {
          "internalType": "uint256",
          "name": "proposalId",
          "type": "uint256"
        }
      ],
      "name": "executeProposal",
      "outputs": [],
      "stateMutability": "nonpayable",
      "type": "function"
    },
    {
      "inputs": [
        {
          "internalType": "uint256",
          "name": "proposalId",
          "type": "uint256"
        }
      ],
      "name": "getProposal",
      "outputs": [
        {
          "internalType": "string",
          "name": "",
          "type": "string"
        },
        {
          "internalType": "uint256",
          "name": "",
          "type": "uint256"
        },
        {
          "internalType": "bool",
          "name": "",
          "type": "bool"
        }
      ],
      "stateMutability": "view",
      "type": "function"
    },
    {
      "inputs": [
        {
          "internalType": "uint256",
          "name": "",
          "type": "uint256"
        }
      ],
      "name": "proposals",
      "outputs": [
        {
          "internalType": "string",
          "name": "description",
          "type": "string"
        },
        {
          "internalType": "uint256",
          "name": "voteCount",
          "type": "uint256"
        },
        {
          "internalType": "bool",
          "name": "executed",
          "type": "bool"
        }
      ],
      "stateMutability": "view",
      "type": "function"
    },
    {
      "inputs": [
        {
          "internalType": "uint256",
          "name": "proposalId",
          "type": "uint256"
        }
      ],
      "name": "vote",
      "outputs": [],
      "stateMutability": "nonpayable",
      "type": "function"
    }
  ],
  "bytecode": "0x608060405234801561001057600080fd5b506040516116593803806116598339818101604052810190610032919061028e565b60005b81518110156100bc576001806000848481518110610056576100556102d7565b5b602002602001015173ffffffffffffffffffffffffffffffffffffffff1673ffffffffffffffffffffffffffffffffffffffff16815260200190815260200160002060006101000a81548160ff0219169083151502179055508080600101915050610035565b5050610306565b6000604051905090565b600080fd5b600080fd5b600080fd5b6000601f19601f8301169050919050565b7f4e487b7100000000000000000000000000000000000000000000000000000000600052604160045260246000fd5b610125826100dc565b810181811067ffffffffffffffff82111715610144576101436100ed565b5b80604052505050565b60006101576100c3565b9050610163828261011c565b919050565b600067ffffffffffffffff821115610183576101826100ed565b5b602082029050602081019050919050565b600080fd5b600073ffffffffffffffffffffffffffffffffffffffff82169050919050565b60006101c482610199565b9050919050565b6101d4816101b9565b81146101df57600080fd5b50565b6000815190506101f1816101cb565b92915050565b600061020a61020584610168565b61014d565b9050808382526020820190506020840283018581111561022d5761022c610194565b5b835b81811015610256578061024288826101e2565b84526020840193505060208101905061022f565b5050509392505050565b600082601f830112610275576102746100d7565b5b81516102858482602086016101f7565b91505092915050565b6000602082840312156102a4576102a36100cd565b5b600082015167ffffffffffffffff8111156102c2576102c16100d2565b5b6102ce84828501610260565b91505092915050565b7f4e487b7100000000000000000000000000000000000000000000000000000000600052603260045260246000fd5b611344806103156000396000f3fe608060405234801561001057600080fd5b50600436106100625760003560e01c80630121b93f14610067578063013cf08b146100835780630d61b519146100b557806312b8874b146100d157806349c2a1a614610101578063c7f758a814610131575b600080fd5b610081600480360381019061007c91906108a4565b610163565b005b61009d600480360381019061009891906108a4565b610311565b6040516100ac9392919061098b565b60405180910390f35b6100cf60048036038101906100ca91906108a4565b6103e0565b005b6100eb60048036038101906100e69190610a27565b610579565b6040516100f89190610a54565b60405180910390f35b61011b60048036038101906101169190610ba4565b610599565b6040516101289190610bed565b60405180910390f35b61014b600480360381019061014691906108a4565b61070a565b60405161015a9392919061098b565b60405180910390f35b600160003373ffffffffffffffffffffffffffffffffffffffff1673ffffffffffffffffffffffffffffffffffffffff16815260200190815260200160002060009054906101000a900460ff166101ef576040517f08c379a00000000000000000000000000000000000000000000000000000000081526004016101e690610c54565b60405180910390fd5b6000805490508110610236576040517f08c379a000000000000000000000000000000000000000000000000000000000815260040161022d90610cc0565b60405180910390fd5b600080828154811061024b5761024a610ce0565b5b906000526020600020906003020190508060020160009054906101000a900460ff16156102ad576040517f08c379a00000000000000000000000000000000000000000000000000000000081526004016102a490610d5b565b60405180910390fd5b60018160010160008282546102c29190610daa565b925050819055503373ffffffffffffffffffffffffffffffffffffffff16827f030b0f8dcd86a031eddb071f91882edeac8173663ba775713b677b42b51be44b60405160405180910390a35050565b6000818154811061032157600080fd5b906000526020600020906003020160009150905080600001805461034490610e0d565b80601f016020809104026020016040519081016040528092919081815260200182805461037090610e0d565b80156103bd5780601f10610392576101008083540402835291602001916103bd565b820191906000526020600020905b8154815290600101906020018083116103a057829003601f168201915b5050505050908060010154908060020160009054906101000a900460ff16905083565b600160003373ffffffffffffffffffffffffffffffffffffffff1673ffffffffffffffffffffffffffffffffffffffff16815260200190815260200160002060009054906101000a900460ff1661046c576040517f08c379a000000000000000000000000000000000000000000000000000000000815260040161046390610eb0565b60405180910390fd5b600080828154811061048157610480610ce0565b5b906000526020600020906003020190508060020160009054906101000a900460ff16156104e3576040517f08c379a00000000000000000000000000000000000000000000000000000000081526004016104da90610f1c565b60405180910390fd5b60018160010154101561052b576040517f08c379a000000000000000000000000000000000000000000000000000000000815260040161052290610f88565b60405180910390fd5b60018160020160006101000a81548160ff021916908315150217905550817f712ae1383f79ac853f8d882153778e0260ef8f03b504e2866e0593e04d2b291f60405160405180910390a25050565b60016020528060005260406000206000915054906101000a900460ff1681565b6000600160003373ffffffffffffffffffffffffffffffffffffffff1673ffffffffffffffffffffffffffffffffffffffff16815260200190815260200160002060009054906101000a900460ff16610627576040517f08c379a000000000000000000000000000000000000000000000000000000000815260040161061e9061101a565b60405180910390fd5b6000604051806060016040528084815260200160008152602001600015158152509080600181540180825580915050600190039060005260206000209060030201600090919091909150600082015181600001908161068691906111e6565b506020820151816001015560408201518160020160006101000a81548160ff0219169083151502179055505050600060016000805490506106c791906112b8565b9050807f9c770c289ab5bf7e57cb1d23c8ceae993aea46eb64847072fd3d78ca60d3e432846040516106f991906112ec565b60405180910390a280915050919050565b60606000806000805490508410610756576040517f08c379a000000000000000000000000000000000000000000000000000000000815260040161074d90610cc0565b60405180910390fd5b600080858154811061076b5761076a610ce0565b5b906000526020600020906003020160405180606001604052908160008201805461079490610e0d565b80601f01602080910402602001604051908101604052809291908181526020018280546107c090610e0d565b801561080d5780601f106107e25761010080835404028352916020019161080d565b820191906000526020600020905b8154815290600101906020018083116107f057829003601f168201915b50505050508152602001600182015481526020016002820160009054906101000a900460ff1615151515815250509050806000015181602001518260400151935093509350509193909250565b6000604051905090565b600080fd5b600080fd5b6000819050919050565b6108818161086e565b811461088c57600080fd5b50565b60008135905061089e81610878565b92915050565b6000602082840312156108ba576108b9610864565b5b60006108c88482850161088f565b91505092915050565b600081519050919050565b600082825260208201905092915050565b60005b8381101561090b5780820151818401526020810190506108f0565b60008484015250505050565b6000601f19601f8301169050919050565b6000610933826108d1565b61093d81856108dc565b935061094d8185602086016108ed565b61095681610917565b840191505092915050565b61096a8161086e565b82525050565b60008115159050919050565b61098581610970565b82525050565b600060608201905081810360008301526109a58186610928565b90506109b46020830185610961565b6109c1604083018461097c565b949350505050565b600073ffffffffffffffffffffffffffffffffffffffff82169050919050565b60006109f4826109c9565b9050919050565b610a04816109e9565b8114610a0f57600080fd5b50565b600081359050610a21816109fb565b92915050565b600060208284031215610a3d57610a3c610864565b5b6000610a4b84828501610a12565b91505092915050565b6000602082019050610a69600083018461097c565b92915050565b600080fd5b600080fd5b7f4e487b7100000000000000000000000000000000000000000000000000000000600052604160045260246000fd5b610ab182610917565b810181811067ffffffffffffffff82111715610ad057610acf610a79565b5b80604052505050565b6000610ae361085a565b9050610aef8282610aa8565b919050565b600067ffffffffffffffff821115610b0f57610b0e610a79565b5b610b1882610917565b9050602081019050919050565b82818337600083830152505050565b6000610b47610b4284610af4565b610ad9565b905082815260208101848484011115610b6357610b62610a74565b5b610b6e848285610b25565b509392505050565b600082601f830112610b8b57610b8a610a6f565b5b8135610b9b848260208601610b34565b91505092915050565b600060208284031215610bba57610bb9610864565b5b600082013567ffffffffffffffff811115610bd857610bd7610869565b5b610be484828501610b76565b91505092915050565b6000602082019050610c026000830184610961565b92915050565b7f4e6f7420617574686f72697a656420746f20766f746500000000000000000000600082015250565b6000610c3e6016836108dc565b9150610c4982610c08565b602082019050919050565b60006020820190508181036000830152610c6d81610c31565b9050919050565b7f496e76616c69642070726f706f73616c00000000000000000000000000000000600082015250565b6000610caa6010836108dc565b9150610cb582610c74565b602082019050919050565b60006020820190508181036000830152610cd981610c9d565b9050919050565b7f4e487b7100000000000000000000000000000000000000000000000000000000600052603260045260246000fd5b7f50726f706f73616c20616c726561647920657865637574656400000000000000600082015250565b6000610d456019836108dc565b9150610d5082610d0f565b602082019050919050565b60006020820190508181036000830152610d7481610d38565b9050919050565b7f4e487b7100000000000000000000000000000000000000000000000000000000600052601160045260246000fd5b6000610db58261086e565b9150610dc08361086e565b9250828201905080821115610dd857610dd7610d7b565b5b92915050565b7f4e487b7100000000000000000000000000000000000000000000000000000000600052602260045260246000fd5b60006002820490506001821680610e2557607f821691505b602082108103610e3857610e37610dde565b5b50919050565b7f4e6f7420617574686f72697a656420746f20657865637574652070726f706f7360008201527f616c730000000000000000000000000000000000000000000000000000000000602082015250565b6000610e9a6023836108dc565b9150610ea582610e3e565b604082019050919050565b60006020820190508181036000830152610ec981610e8d565b9050919050565b7f416c726561647920657865637574656400000000000000000000000000000000600082015250565b6000610f066010836108dc565b9150610f1182610ed0565b602082019050919050565b60006020820190508181036000830152610f3581610ef9565b9050919050565b7f4e6f7420656e6f75676820766f74657300000000000000000000000000000000600082015250565b6000610f726010836108dc565b9150610f7d82610f3c565b602082019050919050565b60006020820190508181036000830152610fa181610f65565b9050919050565b7f4e6f7420617574686f72697a656420746f206372656174652070726f706f736160008201527f6c73000000000000000000000000000000000000000000000000000000000000602082015250565b60006110046022836108dc565b915061100f82610fa8565b604082019050919050565b6000602082019050818103600083015261103381610ff7565b9050919050565b60008190508160005260206000209050919050565b60006020601f8301049050919050565b600082821b905092915050565b60006008830261109c7fffffffffffffffffffffffffffffffffffffffffffffffffffffffffffffffff8261105f565b6110a6868361105f565b95508019841693508086168417925050509392505050565b6000819050919050565b60006110e36110de6110d98461086e565b6110be565b61086e565b9050919050565b6000819050919050565b6110fd836110c8565b611111611109826110ea565b84845461106c565b825550505050565b600090565b611126611119565b6111318184846110f4565b505050565b5b818110156111555761114a60008261111e565b600181019050611137565b5050565b601f82111561119a5761116b8161103a565b6111748461104f565b81016020851015611183578190505b61119761118f8561104f565b830182611136565b50505b505050565b600082821c905092915050565b60006111bd6000198460080261119f565b1980831691505092915050565b60006111d683836111ac565b9150826002028217905092915050565b6111ef826108d1565b67ffffffffffffffff81111561120857611207610a79565b5b6112128254610e0d565b61121d828285611159565b600060209050601f831160018114611250576000841561123e578287015190505b61124885826111ca565b8655506112b0565b601f19841661125e8661103a565b60005b8281101561128657848901518255600182019150602085019450602081019050611261565b868310156112a3578489015161129f601f8916826111ac565b8355505b6001600288020188555050505b505050505050565b60006112c38261086e565b91506112ce8361086e565b92508282039050818111156112e6576112e5610d7b565b5b92915050565b600060208201905081810360008301526113068184610928565b90509291505056fea2646970667358221220461e8e7d9dff7c02c7a5645841ffa21f8955fab3d7cf7e284792ffcab281416b64736f6c634300081c0033",
  "linkReferences": {},
  "deployedLinkReferences": {}
}