{
  "_format": "hh-sol-artifact-1",
  "contractName": "EconomicModule",
  "sourceName": "contracts/EconomicModule.sol",
  "abi": [
    {
      "anonymous": false,
      "inputs": [
        {
          "indexed": true,
          "internalType": "address",
          "name": "agent",
          "type": "address"
        },
        {
          "indexed": false,
          "internalType": "string",
          "name": "decision",
          "type": "string"
        }
      ],
      "name": "EconomicActionExecuted",
      "type": "event"
    },
    {
      "anonymous": false,
      "inputs": [
        {
          "indexed": true,
          "internalType": "address",
          "name": "agent",
          "type": "address"
        },
        {
          "indexed": false,
          "internalType": "uint256",
          "name": "amount",
          "type": "uint256"
        }
      ],
      "name": "Staked",
      "type": "event"
    },
    {
      "anonymous": false,
      "inputs": [
        {
          "indexed": true,
          "internalType": "address",
          "name": "agent",
          "type": "address"
        },
        {
          "indexed": false,
          "internalType": "uint256",
          "name": "amount",
          "type": "uint256"
        }
      ],
      "name": "Unstaked",
      "type": "event"
    },
    {
      "inputs": [
        {
          "internalType": "string",
          "name": "decision",
          "type": "string"
        }
      ],
      "name": "executeEconomicAction",
      "outputs": [],
      "stateMutability": "nonpayable",
      "type": "function"
    },
    {
      "inputs": [],
      "name": "stake",
      "outputs": [],
      "stateMutability": "payable",
      "type": "function"
    },
    {
      "inputs": [
        {
          "internalType": "address",
          "name": "",
          "type": "address"
        }
      ],
      "name": "stakes",
      "outputs": [
        {
          "internalType": "uint256",
          "name": "",
          "type": "uint256"
        }
      ],
      "stateMutability": "view",
      "type": "function"
    },
    {
      "inputs": [
        {
          "internalType": "uint256",
          "name": "amount",
          "type": "uint256"
        }
      ],
      "name": "unstake",
      "outputs": [],
      "stateMutability": "nonpayable",
      "type": "function"
    }
  ],
  "bytecode": "0x6080604052348015600f57600080fd5b5061098a8061001f6000396000f3fe60806040526004361061003f5760003560e01c806316934fc4146100445780632e17de78146100815780633a4b66f1146100aa578063a4465451146100b4575b600080fd5b34801561005057600080fd5b5061006b6004803603810190610066919061048f565b6100dd565b60405161007891906104d5565b60405180910390f35b34801561008d57600080fd5b506100a860048036038101906100a3919061051c565b6100f5565b005b6100b2610263565b005b3480156100c057600080fd5b506100db60048036038101906100d6919061068f565b61034b565b005b60006020528060005260406000206000915090505481565b806000803373ffffffffffffffffffffffffffffffffffffffff1673ffffffffffffffffffffffffffffffffffffffff168152602001908152602001600020541015610176576040517f08c379a000000000000000000000000000000000000000000000000000000000815260040161016d90610735565b60405180910390fd5b806000803373ffffffffffffffffffffffffffffffffffffffff1673ffffffffffffffffffffffffffffffffffffffff16815260200190815260200160002060008282546101c49190610784565b925050819055503373ffffffffffffffffffffffffffffffffffffffff166108fc829081150290604051600060405180830381858888f19350505050158015610211573d6000803e3d6000fd5b503373ffffffffffffffffffffffffffffffffffffffff167f0f5bb82176feb1b5e747e28471aa92156a04d9f3ab9f45f28e2d704232b93f758260405161025891906104d5565b60405180910390a250565b600034116102a6576040517f08c379a000000000000000000000000000000000000000000000000000000000815260040161029d90610804565b60405180910390fd5b346000803373ffffffffffffffffffffffffffffffffffffffff1673ffffffffffffffffffffffffffffffffffffffff16815260200190815260200160002060008282546102f49190610824565b925050819055503373ffffffffffffffffffffffffffffffffffffffff167f9e71bc8eea02a63969f509818f2dafb9254532904319f9dbda79b67bd34a5f3d3460405161034191906104d5565b60405180910390a2565b60008060003373ffffffffffffffffffffffffffffffffffffffff1673ffffffffffffffffffffffffffffffffffffffff16815260200190815260200160002054116103cc576040517f08c379a00000000000000000000000000000000000000000000000000000000081526004016103c3906108a4565b60405180910390fd5b3373ffffffffffffffffffffffffffffffffffffffff167fe13ba16e393886491f499705c030ec21f7d5c2705cbc24d2d194a0b42f454fe6826040516104129190610932565b60405180910390a250565b6000604051905090565b600080fd5b600080fd5b600073ffffffffffffffffffffffffffffffffffffffff82169050919050565b600061045c82610431565b9050919050565b61046c81610451565b811461047757600080fd5b50565b60008135905061048981610463565b92915050565b6000602082840312156104a5576104a4610427565b5b60006104b38482850161047a565b91505092915050565b6000819050919050565b6104cf816104bc565b82525050565b60006020820190506104ea60008301846104c6565b92915050565b6104f9816104bc565b811461050457600080fd5b50565b600081359050610516816104f0565b92915050565b60006020828403121561053257610531610427565b5b600061054084828501610507565b91505092915050565b600080fd5b600080fd5b6000601f19601f8301169050919050565b7f4e487b7100000000000000000000000000000000000000000000000000000000600052604160045260246000fd5b61059c82610553565b810181811067ffffffffffffffff821117156105bb576105ba610564565b5b80604052505050565b60006105ce61041d565b90506105da8282610593565b919050565b600067ffffffffffffffff8211156105fa576105f9610564565b5b61060382610553565b9050602081019050919050565b82818337600083830152505050565b600061063261062d846105df565b6105c4565b90508281526020810184848401111561064e5761064d61054e565b5b610659848285610610565b509392505050565b600082601f83011261067657610675610549565b5b813561068684826020860161061f565b91505092915050565b6000602082840312156106a5576106a4610427565b5b600082013567ffffffffffffffff8111156106c3576106c261042c565b5b6106cf84828501610661565b91505092915050565b600082825260208201905092915050565b7f496e73756666696369656e74207374616b650000000000000000000000000000600082015250565b600061071f6012836106d8565b915061072a826106e9565b602082019050919050565b6000602082019050818103600083015261074e81610712565b9050919050565b7f4e487b7100000000000000000000000000000000000000000000000000000000600052601160045260246000fd5b600061078f826104bc565b915061079a836104bc565b92508282039050818111156107b2576107b1610755565b5b92915050565b7f5374616b65206d7573742062652067726561746572207468616e203000000000600082015250565b60006107ee601c836106d8565b91506107f9826107b8565b602082019050919050565b6000602082019050818103600083015261081d816107e1565b9050919050565b600061082f826104bc565b915061083a836104bc565b925082820190508082111561085257610851610755565b5b92915050565b7f4e6f207374616b65206465706f73697465640000000000000000000000000000600082015250565b600061088e6012836106d8565b915061089982610858565b602082019050919050565b600060208201905081810360008301526108bd81610881565b9050919050565b600081519050919050565b60005b838110156108ed5780820151818401526020810190506108d2565b60008484015250505050565b6000610904826108c4565b61090e81856106d8565b935061091e8185602086016108cf565b61092781610553565b840191505092915050565b6000602082019050818103600083015261094c81846108f9565b90509291505056fea2646970667358221220d3a1f8c89de9e04161fa5e93b6064515859903a92192dfb6aa344cbf7930aae864736f6c634300081c0033",
  "linkReferences": {},
  "deployedLinkReferences": {}
}