{
  "_format": "hh-sol-artifact-1",
  "contractName": "AgentRegistry",
  "sourceName": "contracts/AgentRegistry.sol",
  "abi": [
    {
      "anonymous": false,
      "inputs": [
        {
          "indexed": true,
          "internalType": "string",
          "name": "agentId",
          "type": "string"
        },
        {
          "indexed": true,
          "internalType": "address",
          "name": "agentAddress",
          "type": "address"
        }
      ],
      "name": "AgentRegistered",
      "type": "event"
    },
    {
      "anonymous": false,
      "inputs": [
        {
          "indexed": true,
          "internalType": "string",
          "name": "agentId",
          "type": "string"
        },
        {
          "indexed": false,
          "internalType": "uint256",
          "name": "newReputation",
          "type": "uint256"
        }
      ],
      "name": "ReputationUpdated",
      "type": "event"
    },
    {
      "inputs": [
        {
          "internalType": "string",
          "name": "",
          "type": "string"
        }
      ],
      "name": "agents",
      "outputs": [
        {
          "internalType": "address",
          "name": "agentAddress",
          "type": "address"
        },
        {
          "internalType": "uint256",
          "name": "reputation",
          "type": "uint256"
        },
        {
          "internalType": "bool",
          "name": "registered",
          "type": "bool"
        }
      ],
      "stateMutability": "view",
      "type": "function"
    },
    {
      "inputs": [
        {
          "internalType": "string",
          "name": "agentId",
          "type": "string"
        }
      ],
      "name": "getAgentInfo",
      "outputs": [
        {
          "internalType": "address",
          "name": "",
          "type": "address"
        },
        {
          "internalType": "uint256",
          "name": "",
          "type": "uint256"
        },
        {
          "internalType": "bool",
          "name": "",
          "type": "bool"
        }
      ],
      "stateMutability": "view",
      "type": "function"
    },
    {
      "inputs": [
        {
          "internalType": "string",
          "name": "agentId",
          "type": "string"
        }
      ],
      "name": "registerAgent",
      "outputs": [],
      "stateMutability": "nonpayable",
      "type": "function"
    },
    {
      "inputs": [
        {
          "internalType": "string",
          "name": "agentId",
          "type": "string"
        },
        {
          "internalType": "uint256",
          "name": "newReputation",
          "type": "uint256"
        }
      ],
      "name": "updateReputation",
      "outputs": [],
      "stateMutability": "nonpayable",
      "type": "function"
    }
  ],
  "bytecode": "0x6080604052348015600f57600080fd5b50610a4e8061001f6000396000f3fe608060405234801561001057600080fd5b506004361061004c5760003560e01c80632d2a958514610051578063cf6ee0cb1461006d578063e3e569981461009f578063e4fe33e9146100d1575b600080fd5b61006b600480360381019061006691906106a3565b6100ed565b005b610087600480360381019061008291906106a3565b61027f565b60405161009693929190610761565b60405180910390f35b6100b960048036038101906100b491906106a3565b6102ec565b6040516100c893929190610761565b60405180910390f35b6100eb60048036038101906100e691906107c4565b6103b5565b005b6000816040516100fd9190610891565b908152602001604051809103902060020160009054906101000a900460ff161561015c576040517f08c379a000000000000000000000000000000000000000000000000000000000815260040161015390610905565b60405180910390fd5b60405180606001604052803373ffffffffffffffffffffffffffffffffffffffff16815260200160008152602001600115158152506000826040516101a19190610891565b908152602001604051809103902060008201518160000160006101000a81548173ffffffffffffffffffffffffffffffffffffffff021916908373ffffffffffffffffffffffffffffffffffffffff1602179055506020820151816001015560408201518160020160006101000a81548160ff0219169083151502179055509050503373ffffffffffffffffffffffffffffffffffffffff16816040516102489190610891565b60405180910390207f984fb4a13631d655e3fba91cf874fdbe5caa9544e7200406ba7e387101c95a5460405160405180910390a350565b6000818051602081018201805184825260208301602085012081835280955050505050506000915090508060000160009054906101000a900473ffffffffffffffffffffffffffffffffffffffff16908060010154908060020160009054906101000a900460ff16905083565b6000806000806000856040516103029190610891565b90815260200160405180910390206040518060600160405290816000820160009054906101000a900473ffffffffffffffffffffffffffffffffffffffff1673ffffffffffffffffffffffffffffffffffffffff1673ffffffffffffffffffffffffffffffffffffffff168152602001600182015481526020016002820160009054906101000a900460ff1615151515815250509050806000015181602001518260400151935093509350509193909250565b6000826040516103c59190610891565b908152602001604051809103902060020160009054906101000a900460ff16610423576040517f08c379a000000000000000000000000000000000000000000000000000000000815260040161041a90610971565b60405180910390fd5b6000826040516104339190610891565b908152602001604051809103902060000160009054906101000a900473ffffffffffffffffffffffffffffffffffffffff1673ffffffffffffffffffffffffffffffffffffffff163373ffffffffffffffffffffffffffffffffffffffff16146104d2576040517f08c379a00000000000000000000000000000000000000000000000000000000081526004016104c9906109dd565b60405180910390fd5b806000836040516104e39190610891565b908152602001604051809103902060010181905550816040516105069190610891565b60405180910390207f9a1da23587dcd4b8f3cf09c85accf932eccfcf4a2bb2a823982265b1522ade0c8260405161053d91906109fd565b60405180910390a25050565b6000604051905090565b600080fd5b600080fd5b600080fd5b600080fd5b6000601f19601f8301169050919050565b7f4e487b7100000000000000000000000000000000000000000000000000000000600052604160045260246000fd5b6105b082610567565b810181811067ffffffffffffffff821117156105cf576105ce610578565b5b80604052505050565b60006105e2610549565b90506105ee82826105a7565b919050565b600067ffffffffffffffff82111561060e5761060d610578565b5b61061782610567565b9050602081019050919050565b82818337600083830152505050565b6000610646610641846105f3565b6105d8565b90508281526020810184848401111561066257610661610562565b5b61066d848285610624565b509392505050565b600082601f83011261068a5761068961055d565b5b813561069a848260208601610633565b91505092915050565b6000602082840312156106b9576106b8610553565b5b600082013567ffffffffffffffff8111156106d7576106d6610558565b5b6106e384828501610675565b91505092915050565b600073ffffffffffffffffffffffffffffffffffffffff82169050919050565b6000610717826106ec565b9050919050565b6107278161070c565b82525050565b6000819050919050565b6107408161072d565b82525050565b60008115159050919050565b61075b81610746565b82525050565b6000606082019050610776600083018661071e565b6107836020830185610737565b6107906040830184610752565b949350505050565b6107a18161072d565b81146107ac57600080fd5b50565b6000813590506107be81610798565b92915050565b600080604083850312156107db576107da610553565b5b600083013567ffffffffffffffff8111156107f9576107f8610558565b5b61080585828601610675565b9250506020610816858286016107af565b9150509250929050565b600081519050919050565b600081905092915050565b60005b83811015610854578082015181840152602081019050610839565b60008484015250505050565b600061086b82610820565b610875818561082b565b9350610885818560208601610836565b80840191505092915050565b600061089d8284610860565b915081905092915050565b600082825260208201905092915050565b7f4167656e7420616c726561647920726567697374657265640000000000000000600082015250565b60006108ef6018836108a8565b91506108fa826108b9565b602082019050919050565b6000602082019050818103600083015261091e816108e2565b9050919050565b7f4167656e74206e6f742072656769737465726564000000000000000000000000600082015250565b600061095b6014836108a8565b915061096682610925565b602082019050919050565b6000602082019050818103600083015261098a8161094e565b9050919050565b7f556e617574686f72697a65640000000000000000000000000000000000000000600082015250565b60006109c7600c836108a8565b91506109d282610991565b602082019050919050565b600060208201905081810360008301526109f6816109ba565b9050919050565b6000602082019050610a126000830184610737565b9291505056fea2646970667358221220cd72277114dcb0a187556b5574d4b28509cbb8f24f34a46948add0caa40a1d4064736f6c634300081c0033",
  "linkReferences": {},
  "deployedLinkReferences": {}
}